{
  "contractName": "HR_RPCert",
  "abi": [
    {
      "inputs": [],
      "payable": false,
      "stateMutability": "nonpayable",
      "type": "constructor"
    },
    {
      "constant": true,
      "inputs": [],
      "name": "getContractAddr",
      "outputs": [
        {
          "name": "",
          "type": "address"
        }
      ],
      "payable": false,
      "stateMutability": "view",
      "type": "function"
    },
    {
      "constant": false,
      "inputs": [
        {
          "name": "issue_id",
          "type": "bytes32"
        },
        {
          "name": "cert_id",
          "type": "bytes32[]"
        },
        {
          "name": "issue_org",
          "type": "bytes32"
        },
        {
          "name": "owner_name",
          "type": "bytes32[]"
        },
        {
          "name": "owner_id",
          "type": "bytes32[]"
        },
        {
          "name": "issue_date",
          "type": "bytes32"
        },
        {
          "name": "reward_type",
          "type": "bytes32[]"
        },
        {
          "name": "content",
          "type": "bytes32[]"
        },
        {
          "name": "owner_addr",
          "type": "address[]"
        },
        {
          "name": "issuer_addr",
          "type": "address"
        },
        {
          "name": "issuer_id",
          "type": "bytes32"
        },
        {
          "name": "unique_id",
          "type": "string"
        }
      ],
      "name": "issueContent",
      "outputs": [],
      "payable": false,
      "stateMutability": "nonpayable",
      "type": "function"
    },
    {
      "constant": false,
      "inputs": [
        {
          "name": "certID",
          "type": "bytes32"
        },
        {
          "name": "publickey",
          "type": "string"
        },
        {
          "name": "signature",
          "type": "string"
        }
      ],
      "name": "sign",
      "outputs": [],
      "payable": false,
      "stateMutability": "nonpayable",
      "type": "function"
    },
    {
      "constant": false,
      "inputs": [
        {
          "name": "certID",
          "type": "bytes32"
        }
      ],
      "name": "revoke",
      "outputs": [],
      "payable": false,
      "stateMutability": "nonpayable",
      "type": "function"
    },
    {
      "constant": true,
      "inputs": [
        {
          "name": "certID",
          "type": "bytes32"
        }
      ],
      "name": "getSignStatus",
      "outputs": [
        {
          "name": "",
          "type": "bool"
        }
      ],
      "payable": false,
      "stateMutability": "view",
      "type": "function"
    },
    {
      "constant": true,
      "inputs": [
        {
          "name": "certID",
          "type": "bytes32"
        }
      ],
      "name": "verify",
      "outputs": [
        {
          "name": "",
          "type": "string"
        },
        {
          "name": "",
          "type": "string"
        },
        {
          "name": "",
          "type": "bool"
        }
      ],
      "payable": false,
      "stateMutability": "view",
      "type": "function"
    },
    {
      "constant": true,
      "inputs": [
        {
          "name": "certID",
          "type": "bytes32"
        }
      ],
      "name": "getCertInfo",
      "outputs": [
        {
          "name": "",
          "type": "address"
        },
        {
          "name": "",
          "type": "address"
        },
        {
          "name": "",
          "type": "bytes32"
        },
        {
          "name": "",
          "type": "bool"
        }
      ],
      "payable": false,
      "stateMutability": "view",
      "type": "function"
    },
    {
      "constant": true,
      "inputs": [
        {
          "name": "certID",
          "type": "bytes32"
        }
      ],
      "name": "getCertContent",
      "outputs": [
        {
          "name": "",
          "type": "bytes32"
        },
        {
          "name": "",
          "type": "bytes32"
        },
        {
          "name": "",
          "type": "bytes32"
        },
        {
          "name": "",
          "type": "bytes32"
        },
        {
          "name": "",
          "type": "bytes32"
        },
        {
          "name": "",
          "type": "bytes32[]"
        },
        {
          "name": "",
          "type": "string"
        }
      ],
      "payable": false,
      "stateMutability": "view",
      "type": "function"
    },
    {
      "constant": true,
      "inputs": [
        {
          "name": "certID",
          "type": "bytes32"
        }
      ],
      "name": "getOwnerAddr",
      "outputs": [
        {
          "name": "",
          "type": "address"
        }
      ],
      "payable": false,
      "stateMutability": "view",
      "type": "function"
    },
    {
      "constant": true,
      "inputs": [
        {
          "name": "certID",
          "type": "bytes32"
        }
      ],
      "name": "getIssuerAddr",
      "outputs": [
        {
          "name": "",
          "type": "address"
        }
      ],
      "payable": false,
      "stateMutability": "view",
      "type": "function"
    },
    {
      "constant": true,
      "inputs": [
        {
          "name": "certID",
          "type": "bytes32"
        }
      ],
      "name": "getIssuerID",
      "outputs": [
        {
          "name": "",
          "type": "bytes32"
        }
      ],
      "payable": false,
      "stateMutability": "view",
      "type": "function"
    },
    {
      "constant": true,
      "inputs": [
        {
          "name": "certID",
          "type": "bytes32"
        }
      ],
      "name": "checkExistence",
      "outputs": [
        {
          "name": "",
          "type": "bool"
        }
      ],
      "payable": false,
      "stateMutability": "view",
      "type": "function"
    },
    {
      "constant": true,
      "inputs": [
        {
          "name": "issue_addr",
          "type": "address"
        }
      ],
      "name": "getIssuerIssueIDList",
      "outputs": [
        {
          "name": "",
          "type": "bytes32[]"
        }
      ],
      "payable": false,
      "stateMutability": "view",
      "type": "function"
    },
    {
      "constant": true,
      "inputs": [
        {
          "name": "issue_id",
          "type": "bytes32"
        }
      ],
      "name": "getSignedList",
      "outputs": [
        {
          "name": "",
          "type": "bytes32[]"
        }
      ],
      "payable": false,
      "stateMutability": "view",
      "type": "function"
    },
    {
      "constant": true,
      "inputs": [
        {
          "name": "issue_id",
          "type": "bytes32"
        }
      ],
      "name": "getCertIDList",
      "outputs": [
        {
          "name": "",
          "type": "bytes32[]"
        }
      ],
      "payable": false,
      "stateMutability": "view",
      "type": "function"
    },
    {
      "constant": true,
      "inputs": [
        {
          "name": "issue_id",
          "type": "bytes32"
        }
      ],
      "name": "getIssueIDInfo",
      "outputs": [
        {
          "name": "",
          "type": "bytes32[]"
        },
        {
          "name": "",
          "type": "address"
        },
        {
          "name": "",
          "type": "address"
        },
        {
          "name": "",
          "type": "bytes32"
        }
      ],
      "payable": false,
      "stateMutability": "view",
      "type": "function"
    },
    {
      "constant": true,
      "inputs": [
        {
          "name": "user_addr",
          "type": "address"
        }
      ],
      "name": "getUserCert",
      "outputs": [
        {
          "name": "",
          "type": "bytes32[]"
        }
      ],
      "payable": false,
      "stateMutability": "view",
      "type": "function"
    }
  ],
  "bytecode": "0x608060405234801561001057600080fd5b50336000806101000a81548173ffffffffffffffffffffffffffffffffffffffff021916908373ffffffffffffffffffffffffffffffffffffffff160217905550612191806100606000396000f3006080604052600436106100f1576000357c0100000000000000000000000000000000000000000000000000000000900463ffffffff16806305db503e146100f6578063177b7f48146101b3578063186a2aa11461024b5780632c3768f6146102d15780633855343c1461035757806341c9d5c3146104945780636ff83a4c1461050557806375e3661614610600578063915bdfb1146107215780639e45593914610974578063a7e9fcaa146109cb578063afcd83e814610a89578063b75c7dc614610ad6578063c4b0a00114610b07578063ce57294e14610b50578063e0e2d32e14610bc1578063eef66dac14610c59575b600080fd5b34801561010257600080fd5b506101b16004803603810190808035600019169060200190929190803590602001908201803590602001908080601f0160208091040260200160405190810160405280939291908181526020018383808284378201915050505050509192919290803590602001908201803590602001908080601f0160208091040260200160405190810160405280939291908181526020018383808284378201915050505050509192919290505050610ca2565b005b3480156101bf57600080fd5b506101f4600480360381019080803573ffffffffffffffffffffffffffffffffffffffff169060200190929190505050610daf565b6040518080602001828103825283818151815260200191508051906020019060200280838360005b8381101561023757808201518184015260208101905061021c565b505050509050019250505060405180910390f35b34801561025757600080fd5b5061027a6004803603810190808035600019169060200190929190505050610e4a565b6040518080602001828103825283818151815260200191508051906020019060200280838360005b838110156102bd5780820151818401526020810190506102a2565b505050509050019250505060405180910390f35b3480156102dd57600080fd5b506103006004803603810190808035600019169060200190929190505050611032565b6040518080602001828103825283818151815260200191508051906020019060200280838360005b83811015610343578082015181840152602081019050610328565b505050509050019250505060405180910390f35b34801561036357600080fd5b5061038660048036038101908080356000191690602001909291905050506110ac565b60405180886000191660001916815260200187600019166000191681526020018660001916600019168152602001856000191660001916815260200184600019166000191681526020018060200180602001838103835285818151815260200191508051906020019060200280838360005b838110156104135780820151818401526020810190506103f8565b50505050905001838103825284818151815260200191508051906020019080838360005b83811015610452578082015181840152602081019050610437565b50505050905090810190601f16801561047f5780820380516001836020036101000a031916815260200191505b50995050505050505050505060405180910390f35b3480156104a057600080fd5b506104c36004803603810190808035600019169060200190929190505050611299565b604051808273ffffffffffffffffffffffffffffffffffffffff1673ffffffffffffffffffffffffffffffffffffffff16815260200191505060405180910390f35b34801561051157600080fd5b5061053460048036038101908080356000191690602001909291905050506112e1565b60405180806020018573ffffffffffffffffffffffffffffffffffffffff1673ffffffffffffffffffffffffffffffffffffffff1681526020018473ffffffffffffffffffffffffffffffffffffffff1673ffffffffffffffffffffffffffffffffffffffff1681526020018360001916600019168152602001828103825286818151815260200191508051906020019060200280838360005b838110156105e95780820151818401526020810190506105ce565b505050509050019550505050505060405180910390f35b34801561060c57600080fd5b5061062f60048036038101908080356000191690602001909291905050506114aa565b60405180806020018060200184151515158152602001838103835286818151815260200191508051906020019080838360005b8381101561067d578082015181840152602081019050610662565b50505050905090810190601f1680156106aa5780820380516001836020036101000a031916815260200191505b50838103825285818151815260200191508051906020019080838360005b838110156106e35780820151818401526020810190506106c8565b50505050905090810190601f1680156107105780820380516001836020036101000a031916815260200191505b509550505050505060405180910390f35b34801561072d57600080fd5b50610972600480360381019080803560001916906020019092919080359060200190820180359060200190808060200260200160405190810160405280939291908181526020018383602002808284378201915050505050509192919290803560001916906020019092919080359060200190820180359060200190808060200260200160405190810160405280939291908181526020018383602002808284378201915050505050509192919290803590602001908201803590602001908080602002602001604051908101604052809392919081815260200183836020028082843782019150505050505091929192908035600019169060200190929190803590602001908201803590602001908080602002602001604051908101604052809392919081815260200183836020028082843782019150505050505091929192908035906020019082018035906020019080806020026020016040519081016040528093929190818152602001838360200280828437820191505050505050919291929080359060200190820180359060200190808060200260200160405190810160405280939291908181526020018383602002808284378201915050505050509192919290803573ffffffffffffffffffffffffffffffffffffffff1690602001909291908035600019169060200190929190803590602001908201803590602001908080601f01602080910402602001604051908101604052809392919081815260200183838082843782019150505050505091929192905050506116c6565b005b34801561098057600080fd5b50610989611d74565b604051808273ffffffffffffffffffffffffffffffffffffffff1673ffffffffffffffffffffffffffffffffffffffff16815260200191505060405180910390f35b3480156109d757600080fd5b506109fa6004803603810190808035600019169060200190929190505050611d7c565b604051808573ffffffffffffffffffffffffffffffffffffffff1673ffffffffffffffffffffffffffffffffffffffff1681526020018473ffffffffffffffffffffffffffffffffffffffff1673ffffffffffffffffffffffffffffffffffffffff16815260200183600019166000191681526020018215151515815260200194505050505060405180910390f35b348015610a9557600080fd5b50610ab86004803603810190808035600019169060200190929190505050611e5a565b60405180826000191660001916815260200191505060405180910390f35b348015610ae257600080fd5b50610b056004803603810190808035600019169060200190929190505050611e82565b005b348015610b1357600080fd5b50610b366004803603810190808035600019169060200190929190505050611ebc565b604051808215151515815260200191505060405180910390f35b348015610b5c57600080fd5b50610b7f6004803603810190808035600019169060200190929190505050611ef4565b604051808273ffffffffffffffffffffffffffffffffffffffff1673ffffffffffffffffffffffffffffffffffffffff16815260200191505060405180910390f35b348015610bcd57600080fd5b50610c02600480360381019080803573ffffffffffffffffffffffffffffffffffffffff169060200190929190505050611f3c565b6040518080602001828103825283818151815260200191508051906020019060200280838360005b83811015610c45578082015181840152602081019050610c2a565b505050509050019250505060405180910390f35b348015610c6557600080fd5b50610c886004803603810190808035600019169060200190929190505050611fd7565b604051808215151515815260200191505060405180910390f35b600060026000856000191660001916815260200190815260200160002060060160009054906101000a900473ffffffffffffffffffffffffffffffffffffffff1673ffffffffffffffffffffffffffffffffffffffff161415610d0457600080fd5b80600260008560001916600019168152602001908152602001600020600a016002019080519060200190610d39929190612048565b5081600260008560001916600019168152602001908152602001600020600a016001019080519060200190610d6f929190612048565b506001600260008560001916600019168152602001908152602001600020600a0160000160006101000a81548160ff021916908315150217905550505050565b6060600360008373ffffffffffffffffffffffffffffffffffffffff1673ffffffffffffffffffffffffffffffffffffffff168152602001908152602001600020805480602002602001604051908101604052809291908181526020018280548015610e3e57602002820191906000526020600020905b81546000191681526020019060010190808311610e26575b50505050509050919050565b6060806000806000600160008760001916600019168152602001908152602001600020600001805490501415610e7f57600080fd5b600160008660001916600019168152602001908152602001600020600001805480602002602001604051908101604052809291908181526020018280548015610eeb57602002820191906000526020600020905b81546000191681526020019060010190808311610ed3575b50505050509250600091505b82518260ff161015610fb757828260ff16815181101515610f1457fe5b90602001906020020151905060011515600260008360001916600019168152602001908152602001600020600a0160000160009054906101000a900460ff1615151415610faa576001600086600019166000191681526020019081526020016000206001018190806001815401808255809150509060018203906000526020600020016000909192909190915090600019169055505b8180600101925050610ef7565b60016000866000191660001916815260200190815260200160002060010180548060200260200160405190810160405280929190818152602001828054801561102357602002820191906000526020600020905b8154600019168152602001906001019080831161100b575b50505050509350505050919050565b60606001600083600019166000191681526020019081526020016000206000018054806020026020016040519081016040528092919081815260200182805480156110a057602002820191906000526020600020905b81546000191681526020019060010190808311611088575b50505050509050919050565b600080600080600060608060026000896000191660001916815260200190815260200160002060020154600260008a6000191660001916815260200190815260200160002060070154600260008b6000191660001916815260200190815260200160002060080154600260008c6000191660001916815260200190815260200160002060030154600260008d6000191660001916815260200190815260200160002060090154600260008e60001916600019168152602001908152602001600020600501600260008f60001916600019168152602001908152602001600020600401818054806020026020016040519081016040528092919081815260200182805480156111dd57602002820191906000526020600020905b815460001916815260200190600101908083116111c5575b50505050509150808054600181600116156101000203166002900480601f0160208091040260200160405190810160405280929190818152602001828054600181600116156101000203166002900480156112795780601f1061124e57610100808354040283529160200191611279565b820191906000526020600020905b81548152906001019060200180831161125c57829003601f168201915b505050505090509650965096509650965096509650919395979092949650565b600060026000836000191660001916815260200190815260200160002060060160009054906101000a900473ffffffffffffffffffffffffffffffffffffffff169050919050565b6060600080600060016000866000191660001916815260200190815260200160002060000160026000600160008960001916600019168152602001908152602001600020600001600081548110151561133657fe5b90600052602060002001546000191660001916815260200190815260200160002060060160009054906101000a900473ffffffffffffffffffffffffffffffffffffffff1660026000600160008a6000191660001916815260200190815260200160002060000160008154811015156113ab57fe5b90600052602060002001546000191660001916815260200190815260200160002060000160009054906101000a900473ffffffffffffffffffffffffffffffffffffffff1660026000600160008b60001916600019168152602001908152602001600020600001600081548110151561142057fe5b906000526020600020015460001916600019168152602001908152602001600020600101548380548060200260200160405190810160405280929190818152602001828054801561149457602002820191906000526020600020905b8154600019168152602001906001019080831161147c575b5050505050935093509350935093509193509193565b60608060008060026000866000191660001916815260200190815260200160002060060160009054906101000a900473ffffffffffffffffffffffffffffffffffffffff1673ffffffffffffffffffffffffffffffffffffffff16141561151057600080fd5b600260008560001916600019168152602001908152602001600020600a01600201600260008660001916600019168152602001908152602001600020600a01600101600260008760001916600019168152602001908152602001600020600a0160000160009054906101000a900460ff16828054600181600116156101000203166002900480601f0160208091040260200160405190810160405280929190818152602001828054600181600116156101000203166002900480156116165780601f106115eb57610100808354040283529160200191611616565b820191906000526020600020905b8154815290600101906020018083116115f957829003601f168201915b50505050509250818054600181600116156101000203166002900480601f0160208091040260200160405190810160405280929190818152602001828054600181600116156101000203166002900480156116b25780601f10611687576101008083540402835291602001916116b2565b820191906000526020600020905b81548152906001019060200180831161169557829003601f168201915b505050505091509250925092509193909250565b600089518c511480156116da575086518c51145b80156116e7575084518c51145b15156116f257600080fd5b600460008573ffffffffffffffffffffffffffffffffffffffff1673ffffffffffffffffffffffffffffffffffffffff1681526020019081526020016000208d9080600181540180825580915050906001820390600052602060002001600090919290919091509060001916905550600090505b8b518160ff161015611d6557600160008e600019166000191681526020019081526020016000206000018c8260ff168151811015156117a157fe5b90602001906020020151908060018154018082558091505090600182039060005260206000200160009091929091909150906000191690555060036000868360ff168151811015156117ef57fe5b9060200190602002015173ffffffffffffffffffffffffffffffffffffffff1673ffffffffffffffffffffffffffffffffffffffff1681526020019081526020016000208c8260ff1681518110151561184457fe5b906020019060200201519080600181540180825580915050906001820390600052602060002001600090919290919091509060001916905550848160ff1681518110151561188e57fe5b90602001906020020151600260008e8460ff168151811015156118ad57fe5b906020019060200201516000191660001916815260200190815260200160002060060160006101000a81548173ffffffffffffffffffffffffffffffffffffffff021916908373ffffffffffffffffffffffffffffffffffffffff16021790555083600260008e8460ff1681518110151561192457fe5b906020019060200201516000191660001916815260200190815260200160002060000160006101000a81548173ffffffffffffffffffffffffffffffffffffffff021916908373ffffffffffffffffffffffffffffffffffffffff16021790555082600260008e8460ff1681518110151561199b57fe5b906020019060200201516000191660001916815260200190815260200160002060010181600019169055508a600260008e8460ff168151811015156119dc57fe5b90602001906020020151600019166000191681526020019081526020016000206002018160001916905550898160ff16815181101515611a1857fe5b90602001906020020151600260008e8460ff16815181101515611a3757fe5b90602001906020020151600019166000191681526020019081526020016000206007018160001916905550888160ff16815181101515611a7357fe5b90602001906020020151600260008e8460ff16815181101515611a9257fe5b9060200190602002015160001916600019168152602001908152602001600020600801816000191690555087600260008e8460ff16815181101515611ad357fe5b90602001906020020151600019166000191681526020019081526020016000206003018160001916905550868160ff16815181101515611b0f57fe5b90602001906020020151600260008e8460ff16815181101515611b2e57fe5b9060200190602002015160001916600019168152602001908152602001600020600901816000191690555085600260008e8460ff16815181101515611b6f57fe5b90602001906020020151600019166000191681526020019081526020016000206005019080519060200190611ba59291906120c8565b506000600260008e8460ff16815181101515611bbd57fe5b9060200190602002015160001916600019168152602001908152602001600020600d0160006101000a81548160ff0219169083151502179055506020604051908101604052806000815250600260008e8460ff16815181101515611c1d57fe5b9060200190602002015160001916600019168152602001908152602001600020600a016002019080519060200190611c56929190612048565b506020604051908101604052806000815250600260008e8460ff16815181101515611c7d57fe5b9060200190602002015160001916600019168152602001908152602001600020600a016001019080519060200190611cb6929190612048565b506000600260008e8460ff16815181101515611cce57fe5b9060200190602002015160001916600019168152602001908152602001600020600a0160000160006101000a81548160ff02191690831515021790555081600260008e8460ff16815181101515611d2157fe5b90602001906020020151600019166000191681526020019081526020016000206004019080519060200190611d57929190612048565b508080600101915050611766565b50505050505050505050505050565b600030905090565b60008060008060026000866000191660001916815260200190815260200160002060060160009054906101000a900473ffffffffffffffffffffffffffffffffffffffff1660026000876000191660001916815260200190815260200160002060000160009054906101000a900473ffffffffffffffffffffffffffffffffffffffff1660026000886000191660001916815260200190815260200160002060010154600260008960001916600019168152602001908152602001600020600d0160009054906101000a900460ff1693509350935093509193509193565b6000600260008360001916600019168152602001908152602001600020600101549050919050565b6001600260008360001916600019168152602001908152602001600020600d0160006101000a81548160ff02191690831515021790555050565b6000600260008360001916600019168152602001908152602001600020600a0160000160009054906101000a900460ff169050919050565b600060026000836000191660001916815260200190815260200160002060000160009054906101000a900473ffffffffffffffffffffffffffffffffffffffff169050919050565b6060600460008373ffffffffffffffffffffffffffffffffffffffff1673ffffffffffffffffffffffffffffffffffffffff168152602001908152602001600020805480602002602001604051908101604052809291908181526020018280548015611fcb57602002820191906000526020600020905b81546000191681526020019060010190808311611fb3575b50505050509050919050565b60008060026000846000191660001916815260200190815260200160002060060160009054906101000a900473ffffffffffffffffffffffffffffffffffffffff1673ffffffffffffffffffffffffffffffffffffffff16141561203e5760009050612043565b600190505b919050565b828054600181600116156101000203166002900490600052602060002090601f016020900481019282601f1061208957805160ff19168380011785556120b7565b828001600101855582156120b7579182015b828111156120b657825182559160200191906001019061209b565b5b5090506120c4919061211b565b5090565b82805482825590600052602060002090810192821561210a579160200282015b828111156121095782518290600019169055916020019190600101906120e8565b5b5090506121179190612140565b5090565b61213d91905b80821115612139576000816000905550600101612121565b5090565b90565b61216291905b8082111561215e576000816000905550600101612146565b5090565b905600a165627a7a72305820835f4a4b39bbca8c79ebd235a9d302cbe5ebccdd5009e7b65af818c9629e3a3a0029",
  "source": "pragma solidity ^0.4.23;\n\n\ncontract HR_RPCert{\n    address owner;  \n    \n    constructor () public{\n        owner = msg.sender;         \n    }\n\n    function getContractAddr()public view returns(address){\n        return this;\n    }\n\n    mapping(bytes32=> IssueInfo) ISSUE_INFO;\n    mapping( bytes32 => CertInfo ) CERT_INFO;\n    mapping( address => bytes32[] ) OWNER_CERT_LIST;\n\n    mapping(address =>bytes32[]) ISSUE_ID_LIST; //get issue list by issuer address\n    mapping(address =>bytes32[]) ISSUE_ID_LIST_by_Singer;\n    mapping(address =>SignInfo) SIGNER_CERT_LIST;\n   \n    struct IssueInfo{\n        bytes32[] certID;\n        bytes32[] signedCertID;\n\n    }\n    \n    struct SignInfo {\n        bytes32[] certID;\n        mapping (bytes32 => bool) status;\n    }\n    \n    struct CertInfo {\n \n        address issuerAddr;\n        bytes32 issuerID;\n        bytes32 issueOrg;\n        bytes32 date;\n        string unique_id;\n        bytes32[] content; \n        address ownerAddr;//different \n        bytes32 ownerName; //different \n        bytes32 ownerID;       \n        bytes32 rewardType; //different        \n\n        SignerInfo signInfo;\n        bool revokeStatus;\n                  \n    }\n\n    \n    struct SignerInfo {\n      //  uint signerID;\n        bool status;\n        string publickey;\n        string signature;\n    }\n\n\n    function issueContent( \n        bytes32 issue_id, bytes32[] cert_id,bytes32 issue_org, bytes32[] owner_name, bytes32[] owner_id, bytes32 issue_date, bytes32[] reward_type, bytes32[] content,\n        address[] owner_addr, address issuer_addr, bytes32 issuer_id, string unique_id)public {\n        if(!( (cert_id.length == owner_name.length) && ( cert_id.length == reward_type.length)\n        && ( cert_id.length == owner_addr.length)) ) revert();\n\n        ISSUE_ID_LIST[issuer_addr].push(issue_id);   //query by issuer\n        \n        for (uint8 j = 0; j < cert_id.length; j++) {\n            ISSUE_INFO[issue_id].certID.push(cert_id[j]);  //query by issuer id\n            OWNER_CERT_LIST[owner_addr[j]].push(cert_id[j]);  //query by owner\n            CERT_INFO[cert_id[j]].ownerAddr = owner_addr[j];\n            CERT_INFO[cert_id[j]].issuerAddr = issuer_addr;\n            CERT_INFO[cert_id[j]].issuerID = issuer_id;\n            CERT_INFO[cert_id[j]].issueOrg = issue_org;\n            CERT_INFO[cert_id[j]].ownerName = owner_name[j];\n            CERT_INFO[cert_id[j]].ownerID = owner_id[j];\n            CERT_INFO[cert_id[j]].date = issue_date;\n            CERT_INFO[cert_id[j]].rewardType = reward_type[j];\n            CERT_INFO[cert_id[j]].content = content;\n            CERT_INFO[cert_id[j]].revokeStatus = false;\n            CERT_INFO[cert_id[j]].signInfo.signature = \"\";\n            CERT_INFO[cert_id[j]].signInfo.publickey = \"\";\n            CERT_INFO[cert_id[j]].signInfo.status = false;\n            CERT_INFO[cert_id[j]].unique_id = unique_id;\n        }   \n    }\n\n    //rename pushSignerPublickey to sign\n    function sign(bytes32 certID, string publickey, string signature)public {\n        if(CERT_INFO[certID].ownerAddr == 0)   revert();\n        CERT_INFO[certID].signInfo.signature = signature;\n        CERT_INFO[certID].signInfo.publickey = publickey;\n        CERT_INFO[certID].signInfo.status = true;\n    }\n    function revoke(bytes32 certID)public{\n        CERT_INFO[certID].revokeStatus = true;\n    }\n\n    function getSignStatus(bytes32 certID) public view returns(bool){\n        return CERT_INFO[certID].signInfo.status;\n    }\n    function verify(bytes32 certID) public view returns(string,string,bool){\n\n        if(CERT_INFO[certID].ownerAddr == 0)   revert();\n        return(\n        CERT_INFO[certID].signInfo.signature,\n        CERT_INFO[certID].signInfo.publickey,\n        CERT_INFO[certID].signInfo.status);\n    }\n\n\n    // getallinfo\n    function getCertInfo (bytes32 certID) public view  returns( address, address, bytes32, bool ){       \n        return ( CERT_INFO[certID].ownerAddr, CERT_INFO[certID].issuerAddr, CERT_INFO[certID].issuerID, CERT_INFO[certID].revokeStatus);        \n    }\n\n    function getCertContent (bytes32 certID) public view  returns( bytes32, bytes32, bytes32, bytes32, bytes32, bytes32[], string ){       \n        return( CERT_INFO[certID].issueOrg, CERT_INFO[certID].ownerName, CERT_INFO[certID].ownerID, CERT_INFO[certID].date, CERT_INFO[certID].rewardType, CERT_INFO[certID].content, CERT_INFO[certID].unique_id);\n    }\n\n    function getOwnerAddr (bytes32 certID)public view returns(address){\n        return CERT_INFO[certID].ownerAddr;\n    }\n    function getIssuerAddr(bytes32 certID)public view returns(address){\n        return CERT_INFO[certID].issuerAddr;\n    }\n    \n    function getIssuerID(bytes32 certID)public view returns(bytes32){\n        return CERT_INFO[certID].issuerID;\n    }\n\n\n    function checkExistence(bytes32 certID) public view returns (bool){\n        if(CERT_INFO[certID].ownerAddr == 0)  return false;\n        else return true;        \n    }\n  \n//--------------------signer cert info\n\n    function getIssuerIssueIDList (address issue_addr )public view returns(bytes32[]){\n        return (ISSUE_ID_LIST[issue_addr]);\n    }\n\n\n    function getSignedList ( bytes32 issue_id) public view returns(bytes32[]){\n        if(ISSUE_INFO[issue_id].certID.length==0)revert();\n               \n        bytes32[] memory all_certID = ISSUE_INFO[issue_id].certID; \n        for(uint8 i = 0;i < all_certID.length;i++){\n            bytes32 curr_certID = all_certID[i];\n            if(CERT_INFO[curr_certID].signInfo.status==true){\n                ISSUE_INFO[issue_id].signedCertID.push(curr_certID);\n            }\n        } \n        \n        return ISSUE_INFO[issue_id].signedCertID;\n    }\n\n         \n\n    function getCertIDList(bytes32 issue_id)public view returns(bytes32[]){\n        return ISSUE_INFO[issue_id].certID;  \n    }\n\n \n    function getIssueIDInfo ( bytes32 issue_id )public view returns(bytes32[],address,address,bytes32){\n        //uint[] all_certID = ISSUE_INFO[issue_id];\n        //uint[] memory signedList = getSignedList(issue_id);\n        //CertCommon memory detail = CERT_INFO[ISSUE_INFO[issue_id].certID[0]].detail;\n        return(ISSUE_INFO[issue_id].certID,CERT_INFO[ISSUE_INFO[issue_id].certID[0]].ownerAddr,\n        CERT_INFO[ISSUE_INFO[issue_id].certID[0]].issuerAddr,CERT_INFO[ISSUE_INFO[issue_id].certID[0]].issuerID);\n    }   \n\n//--------------owner's cert info\n//getusercert\n    function getUserCert (address user_addr)public view returns(bytes32[]){\n        return (OWNER_CERT_LIST[user_addr]);\n    }\n\n}\n",
  "sourcePath": "/home/shanehung/smb/dgpa/HRRP/cert-contract/contracts/HR_RPCert.sol",
  "compiler": {
    "name": "solc",
    "version": "0.4.24+commit.e67f0147.Emscripten.clang"
  },
  "schemaVersion": "2.0.1",
  "updatedAt": "2018-12-11T08:13:52.382Z"
}